{
   "_format": "hh-sol-artifact-1",
   "contractName": "NFTEmoji",
   "sourceName": "contracts/NFTEmoji.sol",
   "abi": [
      {
         "inputs": [],
         "stateMutability": "nonpayable",
         "type": "constructor"
      },
      {
         "inputs": [
            {
               "internalType": "address",
               "name": "sender",
               "type": "address"
            },
            {
               "internalType": "uint256",
               "name": "tokenId",
               "type": "uint256"
            },
            {
               "internalType": "address",
               "name": "owner",
               "type": "address"
            }
         ],
         "name": "ERC721IncorrectOwner",
         "type": "error"
      },
      {
         "inputs": [
            {
               "internalType": "address",
               "name": "operator",
               "type": "address"
            },
            {
               "internalType": "uint256",
               "name": "tokenId",
               "type": "uint256"
            }
         ],
         "name": "ERC721InsufficientApproval",
         "type": "error"
      },
      {
         "inputs": [
            {
               "internalType": "address",
               "name": "approver",
               "type": "address"
            }
         ],
         "name": "ERC721InvalidApprover",
         "type": "error"
      },
      {
         "inputs": [
            {
               "internalType": "address",
               "name": "operator",
               "type": "address"
            }
         ],
         "name": "ERC721InvalidOperator",
         "type": "error"
      },
      {
         "inputs": [
            {
               "internalType": "address",
               "name": "owner",
               "type": "address"
            }
         ],
         "name": "ERC721InvalidOwner",
         "type": "error"
      },
      {
         "inputs": [
            {
               "internalType": "address",
               "name": "receiver",
               "type": "address"
            }
         ],
         "name": "ERC721InvalidReceiver",
         "type": "error"
      },
      {
         "inputs": [
            {
               "internalType": "address",
               "name": "sender",
               "type": "address"
            }
         ],
         "name": "ERC721InvalidSender",
         "type": "error"
      },
      {
         "inputs": [
            {
               "internalType": "uint256",
               "name": "tokenId",
               "type": "uint256"
            }
         ],
         "name": "ERC721NonexistentToken",
         "type": "error"
      },
      {
         "inputs": [
            {
               "internalType": "address",
               "name": "owner",
               "type": "address"
            }
         ],
         "name": "OwnableInvalidOwner",
         "type": "error"
      },
      {
         "inputs": [
            {
               "internalType": "address",
               "name": "account",
               "type": "address"
            }
         ],
         "name": "OwnableUnauthorizedAccount",
         "type": "error"
      },
      {
         "anonymous": false,
         "inputs": [
            {
               "indexed": true,
               "internalType": "address",
               "name": "owner",
               "type": "address"
            },
            {
               "indexed": true,
               "internalType": "address",
               "name": "approved",
               "type": "address"
            },
            {
               "indexed": true,
               "internalType": "uint256",
               "name": "tokenId",
               "type": "uint256"
            }
         ],
         "name": "Approval",
         "type": "event"
      },
      {
         "anonymous": false,
         "inputs": [
            {
               "indexed": true,
               "internalType": "address",
               "name": "owner",
               "type": "address"
            },
            {
               "indexed": true,
               "internalType": "address",
               "name": "operator",
               "type": "address"
            },
            {
               "indexed": false,
               "internalType": "bool",
               "name": "approved",
               "type": "bool"
            }
         ],
         "name": "ApprovalForAll",
         "type": "event"
      },
      {
         "anonymous": false,
         "inputs": [
            {
               "indexed": true,
               "internalType": "address",
               "name": "previousOwner",
               "type": "address"
            },
            {
               "indexed": true,
               "internalType": "address",
               "name": "newOwner",
               "type": "address"
            }
         ],
         "name": "OwnershipTransferred",
         "type": "event"
      },
      {
         "anonymous": false,
         "inputs": [
            {
               "indexed": true,
               "internalType": "address",
               "name": "from",
               "type": "address"
            },
            {
               "indexed": true,
               "internalType": "address",
               "name": "to",
               "type": "address"
            },
            {
               "indexed": true,
               "internalType": "uint256",
               "name": "tokenId",
               "type": "uint256"
            }
         ],
         "name": "Transfer",
         "type": "event"
      },
      {
         "inputs": [
            {
               "internalType": "address",
               "name": "to",
               "type": "address"
            },
            {
               "internalType": "uint256",
               "name": "tokenId",
               "type": "uint256"
            }
         ],
         "name": "approve",
         "outputs": [],
         "stateMutability": "nonpayable",
         "type": "function"
      },
      {
         "inputs": [
            {
               "internalType": "address",
               "name": "owner",
               "type": "address"
            }
         ],
         "name": "balanceOf",
         "outputs": [
            {
               "internalType": "uint256",
               "name": "",
               "type": "uint256"
            }
         ],
         "stateMutability": "view",
         "type": "function"
      },
      {
         "inputs": [
            {
               "internalType": "uint256",
               "name": "tokenId",
               "type": "uint256"
            }
         ],
         "name": "burn",
         "outputs": [],
         "stateMutability": "nonpayable",
         "type": "function"
      },
      {
         "inputs": [
            {
               "internalType": "uint256",
               "name": "tokenId",
               "type": "uint256"
            }
         ],
         "name": "getApproved",
         "outputs": [
            {
               "internalType": "address",
               "name": "",
               "type": "address"
            }
         ],
         "stateMutability": "view",
         "type": "function"
      },
      {
         "inputs": [
            {
               "internalType": "address",
               "name": "owner",
               "type": "address"
            },
            {
               "internalType": "address",
               "name": "operator",
               "type": "address"
            }
         ],
         "name": "isApprovedForAll",
         "outputs": [
            {
               "internalType": "bool",
               "name": "",
               "type": "bool"
            }
         ],
         "stateMutability": "view",
         "type": "function"
      },
      {
         "inputs": [
            {
               "internalType": "address",
               "name": "to",
               "type": "address"
            },
            {
               "internalType": "uint256",
               "name": "power",
               "type": "uint256"
            }
         ],
         "name": "mint",
         "outputs": [],
         "stateMutability": "nonpayable",
         "type": "function"
      },
      {
         "inputs": [],
         "name": "name",
         "outputs": [
            {
               "internalType": "string",
               "name": "",
               "type": "string"
            }
         ],
         "stateMutability": "view",
         "type": "function"
      },
      {
         "inputs": [],
         "name": "owner",
         "outputs": [
            {
               "internalType": "address",
               "name": "",
               "type": "address"
            }
         ],
         "stateMutability": "view",
         "type": "function"
      },
      {
         "inputs": [
            {
               "internalType": "uint256",
               "name": "tokenId",
               "type": "uint256"
            }
         ],
         "name": "ownerOf",
         "outputs": [
            {
               "internalType": "address",
               "name": "",
               "type": "address"
            }
         ],
         "stateMutability": "view",
         "type": "function"
      },
      {
         "inputs": [],
         "name": "renounceOwnership",
         "outputs": [],
         "stateMutability": "nonpayable",
         "type": "function"
      },
      {
         "inputs": [
            {
               "internalType": "address",
               "name": "from",
               "type": "address"
            },
            {
               "internalType": "address",
               "name": "to",
               "type": "address"
            },
            {
               "internalType": "uint256",
               "name": "tokenId",
               "type": "uint256"
            }
         ],
         "name": "safeTransferFrom",
         "outputs": [],
         "stateMutability": "nonpayable",
         "type": "function"
      },
      {
         "inputs": [
            {
               "internalType": "address",
               "name": "from",
               "type": "address"
            },
            {
               "internalType": "address",
               "name": "to",
               "type": "address"
            },
            {
               "internalType": "uint256",
               "name": "tokenId",
               "type": "uint256"
            },
            {
               "internalType": "bytes",
               "name": "data",
               "type": "bytes"
            }
         ],
         "name": "safeTransferFrom",
         "outputs": [],
         "stateMutability": "nonpayable",
         "type": "function"
      },
      {
         "inputs": [
            {
               "internalType": "address",
               "name": "operator",
               "type": "address"
            },
            {
               "internalType": "bool",
               "name": "approved",
               "type": "bool"
            }
         ],
         "name": "setApprovalForAll",
         "outputs": [],
         "stateMutability": "nonpayable",
         "type": "function"
      },
      {
         "inputs": [
            {
               "internalType": "bytes4",
               "name": "interfaceId",
               "type": "bytes4"
            }
         ],
         "name": "supportsInterface",
         "outputs": [
            {
               "internalType": "bool",
               "name": "",
               "type": "bool"
            }
         ],
         "stateMutability": "view",
         "type": "function"
      },
      {
         "inputs": [],
         "name": "symbol",
         "outputs": [
            {
               "internalType": "string",
               "name": "",
               "type": "string"
            }
         ],
         "stateMutability": "view",
         "type": "function"
      },
      {
         "inputs": [
            {
               "internalType": "uint256",
               "name": "",
               "type": "uint256"
            }
         ],
         "name": "tokenPower",
         "outputs": [
            {
               "internalType": "uint256",
               "name": "",
               "type": "uint256"
            }
         ],
         "stateMutability": "view",
         "type": "function"
      },
      {
         "inputs": [
            {
               "internalType": "uint256",
               "name": "tokenId",
               "type": "uint256"
            }
         ],
         "name": "tokenURI",
         "outputs": [
            {
               "internalType": "string",
               "name": "",
               "type": "string"
            }
         ],
         "stateMutability": "view",
         "type": "function"
      },
      {
         "inputs": [
            {
               "internalType": "address",
               "name": "from",
               "type": "address"
            },
            {
               "internalType": "address",
               "name": "to",
               "type": "address"
            },
            {
               "internalType": "uint256",
               "name": "tokenId",
               "type": "uint256"
            }
         ],
         "name": "transferFrom",
         "outputs": [],
         "stateMutability": "nonpayable",
         "type": "function"
      },
      {
         "inputs": [
            {
               "internalType": "address",
               "name": "newOwner",
               "type": "address"
            }
         ],
         "name": "transferOwnership",
         "outputs": [],
         "stateMutability": "nonpayable",
         "type": "function"
      }
   ],
   "bytecode": "0x608060405234801561001057600080fd5b50336040518060400160405280600881526020017f4e4654456d6f6a690000000000000000000000000000000000000000000000008152506040518060400160405280600581526020017f454d4f4a49000000000000000000000000000000000000000000000000000000815250816000908161008d919061043d565b50806001908161009d919061043d565b505050600073ffffffffffffffffffffffffffffffffffffffff168173ffffffffffffffffffffffffffffffffffffffff16036101125760006040517f1e4fbdf70000000000000000000000000000000000000000000000000000000081526004016101099190610550565b60405180910390fd5b6101218161012760201b60201c565b5061056b565b6000600660009054906101000a900473ffffffffffffffffffffffffffffffffffffffff16905081600660006101000a81548173ffffffffffffffffffffffffffffffffffffffff021916908373ffffffffffffffffffffffffffffffffffffffff1602179055508173ffffffffffffffffffffffffffffffffffffffff168173ffffffffffffffffffffffffffffffffffffffff167f8be0079c531659141344cd1fd0a4f28419497f9722a3daafe3b4186f6b6457e060405160405180910390a35050565b600081519050919050565b7f4e487b7100000000000000000000000000000000000000000000000000000000600052604160045260246000fd5b7f4e487b7100000000000000000000000000000000000000000000000000000000600052602260045260246000fd5b6000600282049050600182168061026e57607f821691505b60208210810361028157610280610227565b5b50919050565b60008190508160005260206000209050919050565b60006020601f8301049050919050565b600082821b905092915050565b6000600883026102e97fffffffffffffffffffffffffffffffffffffffffffffffffffffffffffffffff826102ac565b6102f386836102ac565b95508019841693508086168417925050509392505050565b6000819050919050565b6000819050919050565b600061033a6103356103308461030b565b610315565b61030b565b9050919050565b6000819050919050565b6103548361031f565b61036861036082610341565b8484546102b9565b825550505050565b600090565b61037d610370565b61038881848461034b565b505050565b5b818110156103ac576103a1600082610375565b60018101905061038e565b5050565b601f8211156103f1576103c281610287565b6103cb8461029c565b810160208510156103da578190505b6103ee6103e68561029c565b83018261038d565b50505b505050565b600082821c905092915050565b6000610414600019846008026103f6565b1980831691505092915050565b600061042d8383610403565b9150826002028217905092915050565b610446826101ed565b67ffffffffffffffff81111561045f5761045e6101f8565b5b6104698254610256565b6104748282856103b0565b600060209050601f8311600181146104a75760008415610495578287015190505b61049f8582610421565b865550610507565b601f1984166104b586610287565b60005b828110156104dd578489015182556001820191506020850194506020810190506104b8565b868310156104fa57848901516104f6601f891682610403565b8355505b6001600288020188555050505b505050505050565b600073ffffffffffffffffffffffffffffffffffffffff82169050919050565b600061053a8261050f565b9050919050565b61054a8161052f565b82525050565b60006020820190506105656000830184610541565b92915050565b6122698061057a6000396000f3fe608060405234801561001057600080fd5b50600436106101215760003560e01c806370a08231116100ad578063a22cb46511610071578063a22cb46514610306578063b88d4fde14610322578063c87b56dd1461033e578063e985e9c51461036e578063f2fde38b1461039e57610121565b806370a0823114610260578063715018a6146102905780638da5cb5b1461029a57806395d89b41146102b85780639fb55e0e146102d657610121565b806323b872dd116100f457806323b872dd146101c057806340c10f19146101dc57806342842e0e146101f857806342966c68146102145780636352211e1461023057610121565b806301ffc9a71461012657806306fdde0314610156578063081812fc14610174578063095ea7b3146101a4575b600080fd5b610140600480360381019061013b91906119be565b6103ba565b60405161014d9190611a06565b60405180910390f35b61015e61049c565b60405161016b9190611ab1565b60405180910390f35b61018e60048036038101906101899190611b09565b61052e565b60405161019b9190611b77565b60405180910390f35b6101be60048036038101906101b99190611bbe565b61054a565b005b6101da60048036038101906101d59190611bfe565b610560565b005b6101f660048036038101906101f19190611bbe565b610662565b005b610212600480360381019061020d9190611bfe565b610721565b005b61022e60048036038101906102299190611b09565b610741565b005b61024a60048036038101906102459190611b09565b610758565b6040516102579190611b77565b60405180910390f35b61027a60048036038101906102759190611c51565b61076a565b6040516102879190611c8d565b60405180910390f35b610298610824565b005b6102a2610838565b6040516102af9190611b77565b60405180910390f35b6102c0610862565b6040516102cd9190611ab1565b60405180910390f35b6102f060048036038101906102eb9190611b09565b6108f4565b6040516102fd9190611c8d565b60405180910390f35b610320600480360381019061031b9190611cd4565b61090c565b005b61033c60048036038101906103379190611e49565b610922565b005b61035860048036038101906103539190611b09565b610947565b6040516103659190611ab1565b60405180910390f35b61038860048036038101906103839190611ecc565b6109b0565b6040516103959190611a06565b60405180910390f35b6103b860048036038101906103b39190611c51565b610a44565b005b60007f80ac58cd000000000000000000000000000000000000000000000000000000007bffffffffffffffffffffffffffffffffffffffffffffffffffffffff1916827bffffffffffffffffffffffffffffffffffffffffffffffffffffffff1916148061048557507f5b5e139f000000000000000000000000000000000000000000000000000000007bffffffffffffffffffffffffffffffffffffffffffffffffffffffff1916827bffffffffffffffffffffffffffffffffffffffffffffffffffffffff1916145b80610495575061049482610aca565b5b9050919050565b6060600080546104ab90611f3b565b80601f01602080910402602001604051908101604052809291908181526020018280546104d790611f3b565b80156105245780601f106104f957610100808354040283529160200191610524565b820191906000526020600020905b81548152906001019060200180831161050757829003601f168201915b5050505050905090565b600061053982610b34565b5061054382610bbc565b9050919050565b61055c8282610557610bf9565b610c01565b5050565b600073ffffffffffffffffffffffffffffffffffffffff168273ffffffffffffffffffffffffffffffffffffffff16036105d25760006040517f64a0ae920000000000000000000000000000000000000000000000000000000081526004016105c99190611b77565b60405180910390fd5b60006105e683836105e1610bf9565b610c13565b90508373ffffffffffffffffffffffffffffffffffffffff168173ffffffffffffffffffffffffffffffffffffffff161461065c578382826040517f64283d7b00000000000000000000000000000000000000000000000000000000815260040161065393929190611f6c565b60405180910390fd5b50505050565b61066a610e2d565b600073ffffffffffffffffffffffffffffffffffffffff168273ffffffffffffffffffffffffffffffffffffffff16036106d9576040517f08c379a00000000000000000000000000000000000000000000000000000000081526004016106d090612015565b60405180910390fd5b6001600760008282546106ec9190612064565b92505081905550600060075490506107048382610eb4565b816008600083815260200190815260200160002081905550505050565b61073c83838360405180602001604052806000815250610922565b505050565b61075460008261074f610bf9565b610c13565b5050565b600061076382610b34565b9050919050565b60008073ffffffffffffffffffffffffffffffffffffffff168273ffffffffffffffffffffffffffffffffffffffff16036107dd5760006040517f89c62b640000000000000000000000000000000000000000000000000000000081526004016107d49190611b77565b60405180910390fd5b600360008373ffffffffffffffffffffffffffffffffffffffff1673ffffffffffffffffffffffffffffffffffffffff168152602001908152602001600020549050919050565b61082c610e2d565b6108366000610fad565b565b6000600660009054906101000a900473ffffffffffffffffffffffffffffffffffffffff16905090565b60606001805461087190611f3b565b80601f016020809104026020016040519081016040528092919081815260200182805461089d90611f3b565b80156108ea5780601f106108bf576101008083540402835291602001916108ea565b820191906000526020600020905b8154815290600101906020018083116108cd57829003601f168201915b5050505050905090565b60086020528060005260406000206000915090505481565b61091e610917610bf9565b8383611073565b5050565b61092d848484610560565b610941610938610bf9565b858585856111e2565b50505050565b606061095282610b34565b50600061095d611393565b9050600081511161097d57604051806020016040528060008152506109a8565b80610987846113aa565b6040516020016109989291906120d4565b6040516020818303038152906040525b915050919050565b6000600560008473ffffffffffffffffffffffffffffffffffffffff1673ffffffffffffffffffffffffffffffffffffffff16815260200190815260200160002060008373ffffffffffffffffffffffffffffffffffffffff1673ffffffffffffffffffffffffffffffffffffffff16815260200190815260200160002060009054906101000a900460ff16905092915050565b610a4c610e2d565b600073ffffffffffffffffffffffffffffffffffffffff168173ffffffffffffffffffffffffffffffffffffffff1603610abe5760006040517f1e4fbdf7000000000000000000000000000000000000000000000000000000008152600401610ab59190611b77565b60405180910390fd5b610ac781610fad565b50565b60007f01ffc9a7000000000000000000000000000000000000000000000000000000007bffffffffffffffffffffffffffffffffffffffffffffffffffffffff1916827bffffffffffffffffffffffffffffffffffffffffffffffffffffffff1916149050919050565b600080610b4083611478565b9050600073ffffffffffffffffffffffffffffffffffffffff168173ffffffffffffffffffffffffffffffffffffffff1603610bb357826040517f7e273289000000000000000000000000000000000000000000000000000000008152600401610baa9190611c8d565b60405180910390fd5b80915050919050565b60006004600083815260200190815260200160002060009054906101000a900473ffffffffffffffffffffffffffffffffffffffff169050919050565b600033905090565b610c0e83838360016114b5565b505050565b600080610c1f84611478565b9050600073ffffffffffffffffffffffffffffffffffffffff168373ffffffffffffffffffffffffffffffffffffffff1614610c6157610c6081848661167a565b5b600073ffffffffffffffffffffffffffffffffffffffff168173ffffffffffffffffffffffffffffffffffffffff1614610cf257610ca36000856000806114b5565b6001600360008373ffffffffffffffffffffffffffffffffffffffff1673ffffffffffffffffffffffffffffffffffffffff168152602001908152602001600020600082825403925050819055505b600073ffffffffffffffffffffffffffffffffffffffff168573ffffffffffffffffffffffffffffffffffffffff1614610d75576001600360008773ffffffffffffffffffffffffffffffffffffffff1673ffffffffffffffffffffffffffffffffffffffff168152602001908152602001600020600082825401925050819055505b846002600086815260200190815260200160002060006101000a81548173ffffffffffffffffffffffffffffffffffffffff021916908373ffffffffffffffffffffffffffffffffffffffff160217905550838573ffffffffffffffffffffffffffffffffffffffff168273ffffffffffffffffffffffffffffffffffffffff167fddf252ad1be2c89b69c2b068fc378daa952ba7f163c4a11628f55a4df523b3ef60405160405180910390a4809150509392505050565b610e35610bf9565b73ffffffffffffffffffffffffffffffffffffffff16610e53610838565b73ffffffffffffffffffffffffffffffffffffffff1614610eb257610e76610bf9565b6040517f118cdaa7000000000000000000000000000000000000000000000000000000008152600401610ea99190611b77565b60405180910390fd5b565b600073ffffffffffffffffffffffffffffffffffffffff168273ffffffffffffffffffffffffffffffffffffffff1603610f265760006040517f64a0ae92000000000000000000000000000000000000000000000000000000008152600401610f1d9190611b77565b60405180910390fd5b6000610f3483836000610c13565b9050600073ffffffffffffffffffffffffffffffffffffffff168173ffffffffffffffffffffffffffffffffffffffff1614610fa85760006040517f73c6ac6e000000000000000000000000000000000000000000000000000000008152600401610f9f9190611b77565b60405180910390fd5b505050565b6000600660009054906101000a900473ffffffffffffffffffffffffffffffffffffffff16905081600660006101000a81548173ffffffffffffffffffffffffffffffffffffffff021916908373ffffffffffffffffffffffffffffffffffffffff1602179055508173ffffffffffffffffffffffffffffffffffffffff168173ffffffffffffffffffffffffffffffffffffffff167f8be0079c531659141344cd1fd0a4f28419497f9722a3daafe3b4186f6b6457e060405160405180910390a35050565b600073ffffffffffffffffffffffffffffffffffffffff168273ffffffffffffffffffffffffffffffffffffffff16036110e457816040517f5b08ba180000000000000000000000000000000000000000000000000000000081526004016110db9190611b77565b60405180910390fd5b80600560008573ffffffffffffffffffffffffffffffffffffffff1673ffffffffffffffffffffffffffffffffffffffff16815260200190815260200160002060008473ffffffffffffffffffffffffffffffffffffffff1673ffffffffffffffffffffffffffffffffffffffff16815260200190815260200160002060006101000a81548160ff0219169083151502179055508173ffffffffffffffffffffffffffffffffffffffff168373ffffffffffffffffffffffffffffffffffffffff167f17307eab39ab6107e8899845ad3d59bd9653f200f220920489ca2b5937696c31836040516111d59190611a06565b60405180910390a3505050565b60008373ffffffffffffffffffffffffffffffffffffffff163b111561138c578273ffffffffffffffffffffffffffffffffffffffff1663150b7a02868685856040518563ffffffff1660e01b8152600401611241949392919061214d565b6020604051808303816000875af192505050801561127d57506040513d601f19601f8201168201806040525081019061127a91906121ae565b60015b611301573d80600081146112ad576040519150601f19603f3d011682016040523d82523d6000602084013e6112b2565b606091505b5060008151036112f957836040517f64a0ae920000000000000000000000000000000000000000000000000000000081526004016112f09190611b77565b60405180910390fd5b805181602001fd5b63150b7a0260e01b7bffffffffffffffffffffffffffffffffffffffffffffffffffffffff1916817bffffffffffffffffffffffffffffffffffffffffffffffffffffffff19161461138a57836040517f64a0ae920000000000000000000000000000000000000000000000000000000081526004016113819190611b77565b60405180910390fd5b505b5050505050565b606060405180602001604052806000815250905090565b6060600060016113b98461173e565b01905060008167ffffffffffffffff8111156113d8576113d7611d1e565b5b6040519080825280601f01601f19166020018201604052801561140a5781602001600182028036833780820191505090505b509050600082602001820190505b60011561146d578080600190039150507f3031323334353637383961626364656600000000000000000000000000000000600a86061a8153600a8581611461576114606121db565b5b04945060008503611418575b819350505050919050565b60006002600083815260200190815260200160002060009054906101000a900473ffffffffffffffffffffffffffffffffffffffff169050919050565b80806114ee5750600073ffffffffffffffffffffffffffffffffffffffff168273ffffffffffffffffffffffffffffffffffffffff1614155b156116225760006114fe84610b34565b9050600073ffffffffffffffffffffffffffffffffffffffff168373ffffffffffffffffffffffffffffffffffffffff161415801561156957508273ffffffffffffffffffffffffffffffffffffffff168173ffffffffffffffffffffffffffffffffffffffff1614155b801561157c575061157a81846109b0565b155b156115be57826040517fa9fbf51f0000000000000000000000000000000000000000000000000000000081526004016115b59190611b77565b60405180910390fd5b811561162057838573ffffffffffffffffffffffffffffffffffffffff168273ffffffffffffffffffffffffffffffffffffffff167f8c5be1e5ebec7d5bd14f71427d1e84f3dd0314c0f7b2291e5b200ac8c7c3b92560405160405180910390a45b505b836004600085815260200190815260200160002060006101000a81548173ffffffffffffffffffffffffffffffffffffffff021916908373ffffffffffffffffffffffffffffffffffffffff16021790555050505050565b611685838383611891565b61173957600073ffffffffffffffffffffffffffffffffffffffff168373ffffffffffffffffffffffffffffffffffffffff16036116fa57806040517f7e2732890000000000000000000000000000000000000000000000000000000081526004016116f19190611c8d565b60405180910390fd5b81816040517f177e802f00000000000000000000000000000000000000000000000000000000815260040161173092919061220a565b60405180910390fd5b505050565b600080600090507a184f03e93ff9f4daa797ed6e38ed64bf6a1f010000000000000000831061179c577a184f03e93ff9f4daa797ed6e38ed64bf6a1f0100000000000000008381611792576117916121db565b5b0492506040810190505b6d04ee2d6d415b85acef810000000083106117d9576d04ee2d6d415b85acef810000000083816117cf576117ce6121db565b5b0492506020810190505b662386f26fc10000831061180857662386f26fc1000083816117fe576117fd6121db565b5b0492506010810190505b6305f5e1008310611831576305f5e1008381611827576118266121db565b5b0492506008810190505b612710831061185657612710838161184c5761184b6121db565b5b0492506004810190505b60648310611879576064838161186f5761186e6121db565b5b0492506002810190505b600a8310611888576001810190505b80915050919050565b60008073ffffffffffffffffffffffffffffffffffffffff168373ffffffffffffffffffffffffffffffffffffffff161415801561194957508273ffffffffffffffffffffffffffffffffffffffff168473ffffffffffffffffffffffffffffffffffffffff16148061190a575061190984846109b0565b5b8061194857508273ffffffffffffffffffffffffffffffffffffffff1661193083610bbc565b73ffffffffffffffffffffffffffffffffffffffff16145b5b90509392505050565b6000604051905090565b600080fd5b600080fd5b60007fffffffff0000000000000000000000000000000000000000000000000000000082169050919050565b61199b81611966565b81146119a657600080fd5b50565b6000813590506119b881611992565b92915050565b6000602082840312156119d4576119d361195c565b5b60006119e2848285016119a9565b91505092915050565b60008115159050919050565b611a00816119eb565b82525050565b6000602082019050611a1b60008301846119f7565b92915050565b600081519050919050565b600082825260208201905092915050565b60005b83811015611a5b578082015181840152602081019050611a40565b60008484015250505050565b6000601f19601f8301169050919050565b6000611a8382611a21565b611a8d8185611a2c565b9350611a9d818560208601611a3d565b611aa681611a67565b840191505092915050565b60006020820190508181036000830152611acb8184611a78565b905092915050565b6000819050919050565b611ae681611ad3565b8114611af157600080fd5b50565b600081359050611b0381611add565b92915050565b600060208284031215611b1f57611b1e61195c565b5b6000611b2d84828501611af4565b91505092915050565b600073ffffffffffffffffffffffffffffffffffffffff82169050919050565b6000611b6182611b36565b9050919050565b611b7181611b56565b82525050565b6000602082019050611b8c6000830184611b68565b92915050565b611b9b81611b56565b8114611ba657600080fd5b50565b600081359050611bb881611b92565b92915050565b60008060408385031215611bd557611bd461195c565b5b6000611be385828601611ba9565b9250506020611bf485828601611af4565b9150509250929050565b600080600060608486031215611c1757611c1661195c565b5b6000611c2586828701611ba9565b9350506020611c3686828701611ba9565b9250506040611c4786828701611af4565b9150509250925092565b600060208284031215611c6757611c6661195c565b5b6000611c7584828501611ba9565b91505092915050565b611c8781611ad3565b82525050565b6000602082019050611ca26000830184611c7e565b92915050565b611cb1816119eb565b8114611cbc57600080fd5b50565b600081359050611cce81611ca8565b92915050565b60008060408385031215611ceb57611cea61195c565b5b6000611cf985828601611ba9565b9250506020611d0a85828601611cbf565b9150509250929050565b600080fd5b600080fd5b7f4e487b7100000000000000000000000000000000000000000000000000000000600052604160045260246000fd5b611d5682611a67565b810181811067ffffffffffffffff82111715611d7557611d74611d1e565b5b80604052505050565b6000611d88611952565b9050611d948282611d4d565b919050565b600067ffffffffffffffff821115611db457611db3611d1e565b5b611dbd82611a67565b9050602081019050919050565b82818337600083830152505050565b6000611dec611de784611d99565b611d7e565b905082815260208101848484011115611e0857611e07611d19565b5b611e13848285611dca565b509392505050565b600082601f830112611e3057611e2f611d14565b5b8135611e40848260208601611dd9565b91505092915050565b60008060008060808587031215611e6357611e6261195c565b5b6000611e7187828801611ba9565b9450506020611e8287828801611ba9565b9350506040611e9387828801611af4565b925050606085013567ffffffffffffffff811115611eb457611eb3611961565b5b611ec087828801611e1b565b91505092959194509250565b60008060408385031215611ee357611ee261195c565b5b6000611ef185828601611ba9565b9250506020611f0285828601611ba9565b9150509250929050565b7f4e487b7100000000000000000000000000000000000000000000000000000000600052602260045260246000fd5b60006002820490506001821680611f5357607f821691505b602082108103611f6657611f65611f0c565b5b50919050565b6000606082019050611f816000830186611b68565b611f8e6020830185611c7e565b611f9b6040830184611b68565b949350505050565b7f4e4654456d6f6a693a206d696e7420746f20746865207a65726f20616464726560008201527f7373000000000000000000000000000000000000000000000000000000000000602082015250565b6000611fff602283611a2c565b915061200a82611fa3565b604082019050919050565b6000602082019050818103600083015261202e81611ff2565b9050919050565b7f4e487b7100000000000000000000000000000000000000000000000000000000600052601160045260246000fd5b600061206f82611ad3565b915061207a83611ad3565b925082820190508082111561209257612091612035565b5b92915050565b600081905092915050565b60006120ae82611a21565b6120b88185612098565b93506120c8818560208601611a3d565b80840191505092915050565b60006120e082856120a3565b91506120ec82846120a3565b91508190509392505050565b600081519050919050565b600082825260208201905092915050565b600061211f826120f8565b6121298185612103565b9350612139818560208601611a3d565b61214281611a67565b840191505092915050565b60006080820190506121626000830187611b68565b61216f6020830186611b68565b61217c6040830185611c7e565b818103606083015261218e8184612114565b905095945050505050565b6000815190506121a881611992565b92915050565b6000602082840312156121c4576121c361195c565b5b60006121d284828501612199565b91505092915050565b7f4e487b7100000000000000000000000000000000000000000000000000000000600052601260045260246000fd5b600060408201905061221f6000830185611b68565b61222c6020830184611c7e565b939250505056fea2646970667358221220989b9e13ee5d64ff1ecc76724faa08e407107eb503974829f14c7f7f37f9480864736f6c634300081c0033",
   "linkReferences": {},
   "deployedLinkReferences": {}
}