{
  "_format": "hh-sol-artifact-1",
  "contractName": "NFTEmoji",
  "sourceName": "contracts/NFTEmoji.sol",
  "abi": [
    {
      "anonymous": false,
      "inputs": [
        {
          "indexed": true,
          "internalType": "address",
          "name": "owner",
          "type": "address"
        },
        {
          "indexed": true,
          "internalType": "address",
          "name": "approved",
          "type": "address"
        },
        {
          "indexed": true,
          "internalType": "uint256",
          "name": "tokenId",
          "type": "uint256"
        }
      ],
      "name": "Approval",
      "type": "event"
    },
    {
      "anonymous": false,
      "inputs": [
        {
          "indexed": true,
          "internalType": "address",
          "name": "owner",
          "type": "address"
        },
        {
          "indexed": true,
          "internalType": "uint256",
          "name": "tokenId",
          "type": "uint256"
        }
      ],
      "name": "Burn",
      "type": "event"
    },
    {
      "anonymous": false,
      "inputs": [
        {
          "indexed": true,
          "internalType": "address",
          "name": "from",
          "type": "address"
        },
        {
          "indexed": true,
          "internalType": "address",
          "name": "to",
          "type": "address"
        },
        {
          "indexed": true,
          "internalType": "uint256",
          "name": "tokenId",
          "type": "uint256"
        }
      ],
      "name": "Transfer",
      "type": "event"
    },
    {
      "inputs": [
        {
          "internalType": "address",
          "name": "to",
          "type": "address"
        },
        {
          "internalType": "uint256",
          "name": "tokenId",
          "type": "uint256"
        }
      ],
      "name": "approve",
      "outputs": [],
      "stateMutability": "nonpayable",
      "type": "function"
    },
    {
      "inputs": [
        {
          "internalType": "address",
          "name": "owner",
          "type": "address"
        }
      ],
      "name": "balanceOf",
      "outputs": [
        {
          "internalType": "uint256",
          "name": "",
          "type": "uint256"
        }
      ],
      "stateMutability": "view",
      "type": "function"
    },
    {
      "inputs": [
        {
          "internalType": "uint256",
          "name": "tokenId",
          "type": "uint256"
        }
      ],
      "name": "burn",
      "outputs": [],
      "stateMutability": "nonpayable",
      "type": "function"
    },
    {
      "inputs": [
        {
          "internalType": "uint256",
          "name": "tokenId",
          "type": "uint256"
        }
      ],
      "name": "getApproved",
      "outputs": [
        {
          "internalType": "address",
          "name": "",
          "type": "address"
        }
      ],
      "stateMutability": "view",
      "type": "function"
    },
    {
      "inputs": [
        {
          "internalType": "address",
          "name": "to",
          "type": "address"
        },
        {
          "internalType": "string",
          "name": "name",
          "type": "string"
        },
        {
          "internalType": "string",
          "name": "tokenURI",
          "type": "string"
        },
        {
          "internalType": "uint256",
          "name": "power",
          "type": "uint256"
        },
        {
          "internalType": "uint256",
          "name": "rarity",
          "type": "uint256"
        }
      ],
      "name": "mint",
      "outputs": [
        {
          "internalType": "uint256",
          "name": "",
          "type": "uint256"
        }
      ],
      "stateMutability": "nonpayable",
      "type": "function"
    },
    {
      "inputs": [
        {
          "internalType": "uint256",
          "name": "tokenId",
          "type": "uint256"
        }
      ],
      "name": "ownerOf",
      "outputs": [
        {
          "internalType": "address",
          "name": "",
          "type": "address"
        }
      ],
      "stateMutability": "view",
      "type": "function"
    },
    {
      "inputs": [
        {
          "internalType": "uint256",
          "name": "tokenId",
          "type": "uint256"
        }
      ],
      "name": "tokenMeta",
      "outputs": [
        {
          "components": [
            {
              "internalType": "string",
              "name": "name",
              "type": "string"
            },
            {
              "internalType": "string",
              "name": "tokenURI",
              "type": "string"
            },
            {
              "internalType": "uint256",
              "name": "power",
              "type": "uint256"
            },
            {
              "internalType": "uint256",
              "name": "rarity",
              "type": "uint256"
            }
          ],
          "internalType": "struct NFTEmoji.NFTMeta",
          "name": "",
          "type": "tuple"
        }
      ],
      "stateMutability": "view",
      "type": "function"
    },
    {
      "inputs": [
        {
          "internalType": "address",
          "name": "from",
          "type": "address"
        },
        {
          "internalType": "address",
          "name": "to",
          "type": "address"
        },
        {
          "internalType": "uint256",
          "name": "tokenId",
          "type": "uint256"
        }
      ],
      "name": "transferFrom",
      "outputs": [],
      "stateMutability": "nonpayable",
      "type": "function"
    }
  ],
  "bytecode": "0x6080604052348015600f57600080fd5b50611ee58061001f6000396000f3fe608060405234801561001057600080fd5b50600436106100885760003560e01c806329867dac1161005b57806329867dac1461012557806342966c68146101555780636352211e1461017157806370a08231146101a157610088565b8063081812fc1461008d578063095ea7b3146100bd5780630ae7a310146100d957806323b872dd14610109575b600080fd5b6100a760048036038101906100a29190611061565b6101d1565b6040516100b491906110cf565b60405180910390f35b6100d760048036038101906100d29190611116565b6102ae565b005b6100f360048036038101906100ee9190611061565b6103a6565b604051610100919061125f565b60405180910390f35b610123600480360381019061011e9190611281565b6105ac565b005b61013f600480360381019061013a9190611409565b610842565b60405161014c91906114cb565b60405180910390f35b61016f600480360381019061016a9190611061565b610af3565b005b61018b60048036038101906101869190611061565b610cee565b60405161019891906110cf565b60405180910390f35b6101bb60048036038101906101b691906114e6565b610d9e565b6040516101c891906114cb565b60405180910390f35b60008073ffffffffffffffffffffffffffffffffffffffff1660008084815260200190815260200160002060009054906101000a900473ffffffffffffffffffffffffffffffffffffffff1673ffffffffffffffffffffffffffffffffffffffff1603610273576040517f08c379a000000000000000000000000000000000000000000000000000000000815260040161026a90611596565b60405180910390fd5b6002600083815260200190815260200160002060009054906101000a900473ffffffffffffffffffffffffffffffffffffffff169050919050565b60006102b982610cee565b90508073ffffffffffffffffffffffffffffffffffffffff168373ffffffffffffffffffffffffffffffffffffffff1603610329576040517f08c379a000000000000000000000000000000000000000000000000000000000815260040161032090611602565b60405180910390fd5b8073ffffffffffffffffffffffffffffffffffffffff163373ffffffffffffffffffffffffffffffffffffffff1614610397576040517f08c379a000000000000000000000000000000000000000000000000000000000815260040161038e9061166e565b60405180910390fd5b6103a18383610e55565b505050565b6103ae610f92565b600073ffffffffffffffffffffffffffffffffffffffff1660008084815260200190815260200160002060009054906101000a900473ffffffffffffffffffffffffffffffffffffffff1673ffffffffffffffffffffffffffffffffffffffff160361044f576040517f08c379a000000000000000000000000000000000000000000000000000000000815260040161044690611700565b60405180910390fd5b6003600083815260200190815260200160002060405180608001604052908160008201805461047d9061174f565b80601f01602080910402602001604051908101604052809291908181526020018280546104a99061174f565b80156104f65780601f106104cb576101008083540402835291602001916104f6565b820191906000526020600020905b8154815290600101906020018083116104d957829003601f168201915b5050505050815260200160018201805461050f9061174f565b80601f016020809104026020016040519081016040528092919081815260200182805461053b9061174f565b80156105885780601f1061055d57610100808354040283529160200191610588565b820191906000526020600020905b81548152906001019060200180831161056b57829003601f168201915b50505050508152602001600282015481526020016003820154815250509050919050565b6105b63382610f0e565b6105f5576040517f08c379a00000000000000000000000000000000000000000000000000000000081526004016105ec906117cc565b60405180910390fd5b8273ffffffffffffffffffffffffffffffffffffffff1661061582610cee565b73ffffffffffffffffffffffffffffffffffffffff161461066b576040517f08c379a00000000000000000000000000000000000000000000000000000000081526004016106629061185e565b60405180910390fd5b600073ffffffffffffffffffffffffffffffffffffffff168273ffffffffffffffffffffffffffffffffffffffff16036106da576040517f08c379a00000000000000000000000000000000000000000000000000000000081526004016106d1906118ca565b60405180910390fd5b6106e5600082610e55565b60018060008573ffffffffffffffffffffffffffffffffffffffff1673ffffffffffffffffffffffffffffffffffffffff16815260200190815260200160002060008282546107349190611919565b9250508190555060018060008473ffffffffffffffffffffffffffffffffffffffff1673ffffffffffffffffffffffffffffffffffffffff168152602001908152602001600020600082825461078a919061194d565b925050819055508160008083815260200190815260200160002060006101000a81548173ffffffffffffffffffffffffffffffffffffffff021916908373ffffffffffffffffffffffffffffffffffffffff160217905550808273ffffffffffffffffffffffffffffffffffffffff168473ffffffffffffffffffffffffffffffffffffffff167fddf252ad1be2c89b69c2b068fc378daa952ba7f163c4a11628f55a4df523b3ef60405160405180910390a4505050565b60008073ffffffffffffffffffffffffffffffffffffffff168673ffffffffffffffffffffffffffffffffffffffff16036108b2576040517f08c379a00000000000000000000000000000000000000000000000000000000081526004016108a9906119cd565b60405180910390fd5b60006004600081546108c3906119ed565b9190508190559050600073ffffffffffffffffffffffffffffffffffffffff1660008083815260200190815260200160002060009054906101000a900473ffffffffffffffffffffffffffffffffffffffff1673ffffffffffffffffffffffffffffffffffffffff161461096c576040517f08c379a000000000000000000000000000000000000000000000000000000000815260040161096390611a81565b60405180910390fd5b8660008083815260200190815260200160002060006101000a81548173ffffffffffffffffffffffffffffffffffffffff021916908373ffffffffffffffffffffffffffffffffffffffff16021790555060018060008973ffffffffffffffffffffffffffffffffffffffff1673ffffffffffffffffffffffffffffffffffffffff1681526020019081526020016000206000828254610a0c919061194d565b92505081905550604051806080016040528087815260200186815260200185815260200184815250600360008381526020019081526020016000206000820151816000019081610a5c9190611c4d565b506020820151816001019081610a729190611c4d565b506040820151816002015560608201518160030155905050808773ffffffffffffffffffffffffffffffffffffffff16600073ffffffffffffffffffffffffffffffffffffffff167fddf252ad1be2c89b69c2b068fc378daa952ba7f163c4a11628f55a4df523b3ef60405160405180910390a48091505095945050505050565b6000610afe82610cee565b90508073ffffffffffffffffffffffffffffffffffffffff163373ffffffffffffffffffffffffffffffffffffffff1614610b6e576040517f08c379a0000000000000000000000000000000000000000000000000000000008152600401610b6590611d6b565b60405180910390fd5b610b79600083610e55565b60018060008373ffffffffffffffffffffffffffffffffffffffff1673ffffffffffffffffffffffffffffffffffffffff1681526020019081526020016000206000828254610bc89190611919565b9250508190555060008083815260200190815260200160002060006101000a81549073ffffffffffffffffffffffffffffffffffffffff02191690556003600083815260200190815260200160002060008082016000610c289190610fba565b600182016000610c389190610fba565b600282016000905560038201600090555050818173ffffffffffffffffffffffffffffffffffffffff167fcc16f5dbb4873280815c1ee09dbd06736cffcc184412cf7a71a0fdb75d397ca560405160405180910390a381600073ffffffffffffffffffffffffffffffffffffffff168273ffffffffffffffffffffffffffffffffffffffff167fddf252ad1be2c89b69c2b068fc378daa952ba7f163c4a11628f55a4df523b3ef60405160405180910390a45050565b60008060008084815260200190815260200160002060009054906101000a900473ffffffffffffffffffffffffffffffffffffffff169050600073ffffffffffffffffffffffffffffffffffffffff168173ffffffffffffffffffffffffffffffffffffffff1603610d95576040517f08c379a0000000000000000000000000000000000000000000000000000000008152600401610d8c90611dfd565b60405180910390fd5b80915050919050565b60008073ffffffffffffffffffffffffffffffffffffffff168273ffffffffffffffffffffffffffffffffffffffff1603610e0e576040517f08c379a0000000000000000000000000000000000000000000000000000000008152600401610e0590611e8f565b60405180910390fd5b600160008373ffffffffffffffffffffffffffffffffffffffff1673ffffffffffffffffffffffffffffffffffffffff168152602001908152602001600020549050919050565b816002600083815260200190815260200160002060006101000a81548173ffffffffffffffffffffffffffffffffffffffff021916908373ffffffffffffffffffffffffffffffffffffffff160217905550808273ffffffffffffffffffffffffffffffffffffffff16610ec883610cee565b73ffffffffffffffffffffffffffffffffffffffff167f8c5be1e5ebec7d5bd14f71427d1e84f3dd0314c0f7b2291e5b200ac8c7c3b92560405160405180910390a45050565b600080610f1a83610cee565b90508073ffffffffffffffffffffffffffffffffffffffff168473ffffffffffffffffffffffffffffffffffffffff161480610f8957508373ffffffffffffffffffffffffffffffffffffffff16610f71846101d1565b73ffffffffffffffffffffffffffffffffffffffff16145b91505092915050565b6040518060800160405280606081526020016060815260200160008152602001600081525090565b508054610fc69061174f565b6000825580601f10610fd85750610ff7565b601f016020900490600052602060002090810190610ff69190610ffa565b5b50565b5b80821115611013576000816000905550600101610ffb565b5090565b6000604051905090565b600080fd5b600080fd5b6000819050919050565b61103e8161102b565b811461104957600080fd5b50565b60008135905061105b81611035565b92915050565b60006020828403121561107757611076611021565b5b60006110858482850161104c565b91505092915050565b600073ffffffffffffffffffffffffffffffffffffffff82169050919050565b60006110b98261108e565b9050919050565b6110c9816110ae565b82525050565b60006020820190506110e460008301846110c0565b92915050565b6110f3816110ae565b81146110fe57600080fd5b50565b600081359050611110816110ea565b92915050565b6000806040838503121561112d5761112c611021565b5b600061113b85828601611101565b925050602061114c8582860161104c565b9150509250929050565b600081519050919050565b600082825260208201905092915050565b60005b83811015611190578082015181840152602081019050611175565b60008484015250505050565b6000601f19601f8301169050919050565b60006111b882611156565b6111c28185611161565b93506111d2818560208601611172565b6111db8161119c565b840191505092915050565b6111ef8161102b565b82525050565b6000608083016000830151848203600086015261121282826111ad565b9150506020830151848203602086015261122c82826111ad565b915050604083015161124160408601826111e6565b50606083015161125460608601826111e6565b508091505092915050565b6000602082019050818103600083015261127981846111f5565b905092915050565b60008060006060848603121561129a57611299611021565b5b60006112a886828701611101565b93505060206112b986828701611101565b92505060406112ca8682870161104c565b9150509250925092565b600080fd5b600080fd5b7f4e487b7100000000000000000000000000000000000000000000000000000000600052604160045260246000fd5b6113168261119c565b810181811067ffffffffffffffff82111715611335576113346112de565b5b80604052505050565b6000611348611017565b9050611354828261130d565b919050565b600067ffffffffffffffff821115611374576113736112de565b5b61137d8261119c565b9050602081019050919050565b82818337600083830152505050565b60006113ac6113a784611359565b61133e565b9050828152602081018484840111156113c8576113c76112d9565b5b6113d384828561138a565b509392505050565b600082601f8301126113f0576113ef6112d4565b5b8135611400848260208601611399565b91505092915050565b600080600080600060a0868803121561142557611424611021565b5b600061143388828901611101565b955050602086013567ffffffffffffffff81111561145457611453611026565b5b611460888289016113db565b945050604086013567ffffffffffffffff81111561148157611480611026565b5b61148d888289016113db565b935050606061149e8882890161104c565b92505060806114af8882890161104c565b9150509295509295909350565b6114c58161102b565b82525050565b60006020820190506114e060008301846114bc565b92915050565b6000602082840312156114fc576114fb611021565b5b600061150a84828501611101565b91505092915050565b600082825260208201905092915050565b7f4e46543a20617070726f76656420717565727920666f72206e6f6e657869737460008201527f656e7420746f6b656e0000000000000000000000000000000000000000000000602082015250565b6000611580602983611513565b915061158b82611524565b604082019050919050565b600060208201905081810360008301526115af81611573565b9050919050565b7f4e46543a20617070726f76616c20746f2063757272656e74206f776e65720000600082015250565b60006115ec601e83611513565b91506115f7826115b6565b602082019050919050565b6000602082019050818103600083015261161b816115df565b9050919050565b7f4e46543a20617070726f76652063616c6c6572206973206e6f74206f776e6572600082015250565b6000611658602083611513565b915061166382611622565b602082019050919050565b600060208201905081810360008301526116878161164b565b9050919050565b7f4e46543a206d65746120717565727920666f72206e6f6e6578697374656e742060008201527f746f6b656e000000000000000000000000000000000000000000000000000000602082015250565b60006116ea602583611513565b91506116f58261168e565b604082019050919050565b60006020820190508181036000830152611719816116dd565b9050919050565b7f4e487b7100000000000000000000000000000000000000000000000000000000600052602260045260246000fd5b6000600282049050600182168061176757607f821691505b60208210810361177a57611779611720565b5b50919050565b7f4e46543a206e6f74206f776e6572206e6f7220617070726f7665640000000000600082015250565b60006117b6601b83611513565b91506117c182611780565b602082019050919050565b600060208201905081810360008301526117e5816117a9565b9050919050565b7f4e46543a207472616e736665722066726f6d20696e636f7272656374206f776e60008201527f6572000000000000000000000000000000000000000000000000000000000000602082015250565b6000611848602283611513565b9150611853826117ec565b604082019050919050565b600060208201905081810360008301526118778161183b565b9050919050565b7f4e46543a207472616e7366657220746f207a65726f2061646472657373000000600082015250565b60006118b4601d83611513565b91506118bf8261187e565b602082019050919050565b600060208201905081810360008301526118e3816118a7565b9050919050565b7f4e487b7100000000000000000000000000000000000000000000000000000000600052601160045260246000fd5b60006119248261102b565b915061192f8361102b565b9250828203905081811115611947576119466118ea565b5b92915050565b60006119588261102b565b91506119638361102b565b925082820190508082111561197b5761197a6118ea565b5b92915050565b7f4e46543a206d696e7420746f207a65726f206164647265737300000000000000600082015250565b60006119b7601983611513565b91506119c282611981565b602082019050919050565b600060208201905081810360008301526119e6816119aa565b9050919050565b60006119f88261102b565b91507fffffffffffffffffffffffffffffffffffffffffffffffffffffffffffffffff8203611a2a57611a296118ea565b5b600182019050919050565b7f4e46543a20746f6b656e20616c7265616479206d696e74656400000000000000600082015250565b6000611a6b601983611513565b9150611a7682611a35565b602082019050919050565b60006020820190508181036000830152611a9a81611a5e565b9050919050565b60008190508160005260206000209050919050565b60006020601f8301049050919050565b600082821b905092915050565b600060088302611b037fffffffffffffffffffffffffffffffffffffffffffffffffffffffffffffffff82611ac6565b611b0d8683611ac6565b95508019841693508086168417925050509392505050565b6000819050919050565b6000611b4a611b45611b408461102b565b611b25565b61102b565b9050919050565b6000819050919050565b611b6483611b2f565b611b78611b7082611b51565b848454611ad3565b825550505050565b600090565b611b8d611b80565b611b98818484611b5b565b505050565b5b81811015611bbc57611bb1600082611b85565b600181019050611b9e565b5050565b601f821115611c0157611bd281611aa1565b611bdb84611ab6565b81016020851015611bea578190505b611bfe611bf685611ab6565b830182611b9d565b50505b505050565b600082821c905092915050565b6000611c2460001984600802611c06565b1980831691505092915050565b6000611c3d8383611c13565b9150826002028217905092915050565b611c5682611156565b67ffffffffffffffff811115611c6f57611c6e6112de565b5b611c79825461174f565b611c84828285611bc0565b600060209050601f831160018114611cb75760008415611ca5578287015190505b611caf8582611c31565b865550611d17565b601f198416611cc586611aa1565b60005b82811015611ced57848901518255600182019150602085019450602081019050611cc8565b86831015611d0a5784890151611d06601f891682611c13565b8355505b6001600288020188555050505b505050505050565b7f4e46543a206f6e6c79206f776e65722063616e206275726e0000000000000000600082015250565b6000611d55601883611513565b9150611d6082611d1f565b602082019050919050565b60006020820190508181036000830152611d8481611d48565b9050919050565b7f4e46543a206f776e657220717565727920666f72206e6f6e6578697374656e7460008201527f20746f6b656e0000000000000000000000000000000000000000000000000000602082015250565b6000611de7602683611513565b9150611df282611d8b565b604082019050919050565b60006020820190508181036000830152611e1681611dda565b9050919050565b7f4e46543a2062616c616e636520717565727920666f72207a65726f206164647260008201527f6573730000000000000000000000000000000000000000000000000000000000602082015250565b6000611e79602383611513565b9150611e8482611e1d565b604082019050919050565b60006020820190508181036000830152611ea881611e6c565b905091905056fea26469706673582212200902b50af71bb7fe55bb7a94635b35236894378a4e2228afc31f5d0b8812f51864736f6c634300081c0033",
  "linkReferences": {},
  "deployedLinkReferences": {}
}